:020000040800F2
:100000000090002041C70008C5270008C727000846
:1000100000000000000000000000000000000000E0
:10002000000000000000000000000000C9270008D8
:100030000000000000000000CB270008CD270008CA
:1000400091C7000891C7000891C7000891C7000830
:1000500091C7000891C7000891C7000891C7000820
:1000600091C7000891C7000891C7000891C7000810
:1000700091C7000891C7000891C7000891C7000800
:1000800091C7000891C7000891C7000891C70008F0
:1000900091C7000891C7000891C7000891C70008E0
:1000A00091C7000891C7000891C7000891C70008D0
:0C00B000D5270008E527000891C70008CC
:1000BC0010B5064C2378002B07D1054B002B02D032
:1000CC00044800E000BF0123237010BDE4010020B0
:1000DC000000000084060108044B10B5002B03D06F
:1000EC000349044800E000BF10BDC04600000000FA
:1000FC00E80100208406010802780B78002A03D05E
:10010C00013001319A42F7D0D01A70470023C25CFB
:10011C000133002AFBD1581E7047000002B471460F
:10012C0049084900095C49008E4402BC7047C0462E
:10013C0003B47146490840004900095E49008E44E9
:10014C0003BC7047002243088B4274D303098B42D3
:10015C005FD3030A8B4244D3030B8B4228D3030C8B
:10016C008B420DD3FF22090212BA030C8B4202D32D
:10017C001212090265D0030B8B4219D300E0090A55
:10018C00C30B8B4201D3CB03C01A5241830B8B425E
:10019C0001D38B03C01A5241430B8B4201D34B0347
:1001AC00C01A5241030B8B4201D30B03C01A5241AC
:1001BC00C30A8B4201D3CB02C01A5241830A8B4231
:1001CC0001D38B02C01A5241430A8B4201D34B021A
:1001DC00C01A5241030A8B4201D30B02C01A52417E
:1001EC00CDD2C3098B4201D3CB01C01A5241830932
:1001FC008B4201D38B01C01A524143098B4201D36C
:10020C004B01C01A524103098B4201D30B01C01A96
:10021C005241C3088B4201D3CB00C01A5241830810
:10022C008B4201D38B00C01A524143088B4201D33D
:10023C004B00C01A5241411A00D20146524110469D
:10024C007047FFE701B5002000F0F0F802BDC04692
:10025C000029F7D076E7704703460B437FD4002282
:10026C0043088B4274D303098B425FD3030A8B423E
:10027C0044D3030B8B4228D3030C8B420DD3FF22A8
:10028C00090212BA030C8B4202D31212090265D076
:10029C00030B8B4219D300E0090AC30B8B4201D329
:1002AC00CB03C01A5241830B8B4201D38B03C01A70
:1002BC005241430B8B4201D34B03C01A5241030BE7
:1002CC008B4201D30B03C01A5241C30A8B4201D398
:1002DC00CB02C01A5241830A8B4201D38B02C01A43
:1002EC005241430A8B4201D34B02C01A5241030ABA
:1002FC008B4201D30B02C01A5241CDD2C3098B429F
:10030C0001D3CB01C01A524183098B4201D38B011B
:10031C00C01A524143098B4201D34B01C01A5241BE
:10032C0003098B4201D30B01C01A5241C3088B4203
:10033C0001D3CB00C01A524183088B4201D38B00EE
:10034C00C01A524143088B4201D34B00C01A524190
:10035C00411A00D201465241104670475DE0CA0F67
:10036C0000D04942031000D34042534000229C4627
:10037C0003098B422DD3030A8B4212D3FC22890131
:10038C0012BA030A8B420CD3890192118B4208D307
:10039C00890192118B4204D389013AD0921100E069
:1003AC008909C3098B4201D3CB01C01A524183097D
:1003BC008B4201D38B01C01A524143098B4201D3AA
:1003CC004B01C01A524103098B4201D30B01C01AD5
:1003DC005241C3088B4201D3CB00C01A524183084F
:1003EC008B4201D38B00C01A5241D9D243088B42A5
:1003FC0001D34B00C01A5241411A00D20146634648
:10040C0052415B10104601D34042002B00D54942AB
:10041C00704763465B1000D3404201B5002000F0EA
:10042C0005F802BD0029F8D016E770477047C046A2
:10043C008446101C62468C46191C634600E0C0467C
:10044C001FB501F01FF8002801D40021C8421FBDC0
:10045C0010B500F069FF4042013010BD10B501F03D
:10046C0011F8002801DB002010BD012010BDC04692
:10047C0010B501F007F8002801DD002010BD0120A7
:10048C0010BDC04610B500F08BFF002801DC002029
:10049C0010BD012010BDC04610B500F081FF002832
:1004AC0001DA002010BD012010BDC046002B11D177
:1004BC00002A0FD1002900D1002802D00021C94305
:1004CC00081C07B4024802A14018029003BDC046A4
:1004DC005DFFFFFF03B4684601B5029800F006F813
:1004EC00019B9E4602B00CBC7047C046F0B5574607
:1004FC004E464546DE46E0B504000D009246994650
:10050C0083B08B4230D82DD04946504601F0F0FED6
:10051C0029000600200001F0EBFE331A9846203B20
:10052C009B4633D45A465346934042461F0053468B
:10053C0093401E00AF423AD8AF4200D178E05B4600
:10054C00A41BBD41002B00DA75E0002200230092B1
:10055C00019301235A469340019301234246934051
:10056C00009328E08242CFD900220023009201930D
:10057C000C9B002B01D01C605D600098019903B0AE
:10058C00F0BCBB46B246A946A046F0BD424620236D
:10059C009B1A5246DA40414613004A468A401700DD
:1005AC0042461F43534693401E00AF42C4D900221B
:1005BC000023009201934346002BD9D0FB0772080D
:1005CC001A4346467B080EE0AB4201D1A2420CD83E
:1005DC00A41A9D41012024196D410021013E2418CB
:1005EC004D41002E06D0AB42EED9013E24196D418F
:1005FC00002EF8D1009801995B4600196941002B37
:10060C0024DB2B005A464446D3402A00E2401C000F
:10061C005B461500002B2ADB26009E40330026008B
:10062C004746BE403200801A9941009001919FE7E5
:10063C00A342BCD883E74246202300219B1A002208
:10064C00009101920122DA40019286E74246202372
:10065C009B1A2A0046469A402300F3404446134313
:10066C002A00E2401C005B461500002BD4DA4246FF
:10067C002F002023260097409B1ADE403B0033437B
:10068C00CDE7C046F0B54F46D64646460D000100B4
:10069C001800C0B517002B035A0A4B0F1343CA009E
:1006AC00914602036E004100520AEC0F7D0F154378
:1006BC00760D490DC00F8246AC46FF00721A84427B
:1006CC0000D198E0002A00DC81E0002900D1B6E0DE
:1006DC00C9498E4200D172E18021280009040843E7
:1006EC008446382A00DD5EE11F2A00DDEEE1202081
:1006FC0039006546801A8740D14085400D4339004A
:10070C004F1EB9416746D7402943DB1B4A46551A51
:10071C00A945894149425B1A984643461B0200D4BD
:10072C00CCE043465B025B0A98464346002B00D163
:10073C002CE1404601F0BEFD0100083920222800C2
:10074C004346521A8B40D0408D4003438E4200DD0D
:10075C0017E18E1B721C1F2A00DDA7E12021180057
:10076C002E00891A8D408840D640D340691E8D4199
:10077C0030439846002605436B0709D00F232B40C6
:10078C00042B05D02B1DAB42AD416D42A8441D007E
:10079C0043461B0200D494E0974B721C9A4200D142
:1007AC009DE04146954BED0819400B005205490759
:1007BC005B0229431B0B520D12051343E407234321
:1007CC0008001900E0BCBA46B146A846F0BD002AA4
:1007DC0043D08A1B002E00D02AE14C461C4300D18A
:1007EC00D1E1541E012A00D11FE2834DAA4200D14F
:1007FC0072E2220023E1002A00DC98E0002942D0BA
:10080C007D498E4200D1DAE080212800090408439A
:10081C008446382A00DD29E11F2A00DC87E111001B
:10082C0065462039CD40202A04D040206146821AEA
:10083C0091400F4339004F1EB9410D431BE1290074
:10084C00394300D1B5E0511E012A00D1ABE16A4811
:10085C00824200D1B2E10A0043E76949751C0D429E
:10086C0000D0CFE0002E00D093E14946194300D1CF
:10087C00D1E16146394300D0E3E149465807C90844
:10088C000143DB0826E02900394300D191E0511ED9
:10089C00012A05D05848824200D18FE10A00B8E7FE
:1008AC003D004D444D458941634498464942884436
:1008BC00434602261B0200D5EBE0013E6B0700D03D
:1008CC005CE74346E9085A0711433200DB084A4803
:1008DC00824221D01B0352051B0B520D6CE70023E7
:1008EC00002169E72A003A4369D04A465807D108E3
:1008FC00DA0880231B0308431A4207D02900ED08AD
:10090C001D4203D12A00FF0848073843430FC1009A
:10091C005B07C908194313000A001A4300D113E2FC
:10092C008022120313431B03334A1B0B44E7002A98
:10093C004BD08A1B002E00D1E7E02F48814200D11A
:10094C0095E1802000040343382A00DD43E11F2A8F
:10095C0000DDDBE120201D004E46801A8540D6408C
:10096C0035434E4686403000D340461EB0419C4431
:10097C000543ED19BD429B415B42634498460E0012
:10098C007FE01E4A761A13409846F5E6280001F0DF
:10099C0091FC010018311F2900DCCFE62B00083830
:1009AC0083400025D2E662463A4311004F1EB941FE
:1009BC00ACE649465807C9080143DB0887E74946B6
:1009CC005A07C9081143DB08A6E70D49701C0842F9
:1009DC0000D0BBE0002E00D014E14946194300D1F1
:1009EC0075E12900394300D07EE149465807C90812
:1009FC000143DB086EE7C046FF070000FFFF7FFFE7
:100A0C00FE0700004946CD1B6146581AA94589418D
:100A1C004942884601004046091A8846090200D519
:100A2C00A6E04146294300D07FE60023002451E78D
:100A3C00C74CA14200D1C7E0802424042343382AA8
:100A4C0054DC1F2A00DDCCE020244846A41A1D00EB
:100A5C004E46A040D640A5400400D34062463543E4
:100A6C00661EB441D31A9C46254344E062463A4381
:100A7C0015006F1EBD414D444D4589414942884684
:100A8C00984443461B0200D418E7B14B01369E42F2
:100A9C0049D04246AF4B01211A4013006A080D4061
:100AAC001543D9075B0898460D4365E618001F3EB1
:100ABC00F040202A03D040218A1A93401D43691E1E
:100ACC008D410023002698460543F7E61100654644
:100ADC002039CD40202A04D040206146821A914012
:100AEC000F4339004F1EB94129430FE64A461343C1
:100AFC001D006B1E9D417D1BAF429B4162465B42BC
:100B0C00D31A984654460E0007E64846184300D1BF
:100B1C00B3E0501E012A00D10DE18D4DAA4200D147
:100B2C00A5E0020010E732000023002144E620215A
:100B3C003800891A65468F408D40D040791E8F4110
:100B4C0005433D436746D740DB1994E7804A904202
:100B5C0000D1ECE03900494449459241634452428A
:100B6C009B18DD0749085B08984606000D43A5E66F
:100B7C004A46BD1AAF42894162464942D31A5B1AB2
:100B8C0098465446D1E56C07F9082143EB0804005C
:100B9C009DE64A461A4375D16146394314D18023E8
:100BAC0000241B03BCE64A46D51BA9458941624675
:100BBC0049429B1A5B1A98460126AEE54A46D10873
:100BCC005A071143DB08A7E66346F9085A0754464F
:100BDC001143DB08A0E64A4613431D006B1E9D41E2
:100BEC00C7E614001E00203CE640202A05D0402415
:100BFC00A21A93404A461A4391464D466B1E9D419C
:100C0C00354378E74A461A4300D06BE66B07F90880
:100C1C001943EB0880E66146394354D06346F90822
:100C2C005C072143DB08040054E64A46BD1AAF4278
:100C3C00894162464942D31A5B1A98460400012640
:100C4C006BE54A46D51BA9458941624649429A1A29
:100C5C00521A9046120232D54A46BD1AAF42894109
:100C6C0062464942D31A5B1A9846040084E56346EF
:100C7C00F9085A071143DB084EE6F90868070143E7
:100C8C00EB0824E662463A4300D198E64A46D1087E
:100C9C005A071143DA0880231B031A4208D0604616
:100CAC00C5081D4204D154462A00F90843071943CC
:100CBC004B0FC9005B07C908194313002CE64146CA
:100CCC00294300D0FAE500230A00002402E66B0752
:100CDC00F9081943EB08FDE56346F9085B0719436E
:100CEC0063460400DB0817E63D004D4463444D4564
:100CFC00894198464942884443461B0200D4DDE5AD
:100D0C004246144B01261A409046D7E510001E00AF
:100D1C002038C640202A05D04020821A93404A46EB
:100D2C001A4391464D466B1E9D41354321E6020008
:100D3C000023002140E54A46D519BD428941634450
:100D4C00984649428844B3E50021014A0B0033E53B
:100D5C00FF070000FFFF7FFFF0B557464E464546A4
:100D6C00DE46E0B5814605000C03480092461F00A4
:100D7C0085B0240B400DCE0F002859D0874B9842DC
:100D8C0000D198E06B0FE4001C4380231B04234329
:100D9C009846834BED009B46002399468344009371
:100DAC003C037B005046240B5B0DFF0F002B67D0E0
:100DBC007A4A934218D07A49420F8C46E40059463D
:100DCC001443802263441204CB1A14439B46C20082
:100DDC00002033007B409A464B460F2B00D9EFE0A6
:100DEC0070499B00CB589F466F4B52469C46224302
:100DFC00E344002A00D095E0494602231943894672
:100E0C0000240220E5E700230024002552461B05A0
:100E1C002343D20713432800190005B0F0BCBB468E
:100E2C00B246A946A046F0BD002400255B4BEDE779
:100E3C004B462343984600D189E0002C00D1E0E1D9
:100E4C00200001F037FA010002000B391D235B1A58
:100E5C0049461000D940083884400B004D462343C6
:100E6C009846854051483C03831A9B46002399467B
:100E7C0000937B005046240B5B0DFF0F002B97D18A
:100E8C005246224355D0002C00D1CAE1200001F07B
:100E9C0011FA02000B3A1D2301009B1A5246083925
:100EAC00DA408C40144352468A40414B58449B468E
:100EBC00834400208DE74B462343984640D10823BA
:100ECC009946063B00258346009369E7B246009B92
:100EDC00022BA9D0032B00D111E2012B93D0354A60
:100EEC005A44002A00DC3CE16B0700D0A7E1ED0876
:100EFC004346DB0106D542462F4B1A4090468022D2
:100F0C00D2005A442D4B9A428EDC43465205580768
:100F1C005C020543240B530D78E7BA46A046150036
:100F2C000090D4E74A4603231A43914603205246C5
:100F3C004FE749460123194389460024012048E71D
:100F4C000C239946093BA0468346009328E70423CB
:100F5C00994600239B4601330025009320E700238C
:100F6C0080249A4600250D4B24034FE780234146ED
:100F7C001B03194208D01C4206D11C432403BA4659
:100F8C001500064B240B41E78024434624031C43E5
:100F9C002403B246014B240B38E7C046FF07000080
:100FAC0001FCFFFFB806010801F8FFFF0DFCFFFF75
:100FBC00F3030000FF030000FFFFFFFEFE0700002D
:100FCC00444500D216E100D111E101235B429C465D
:100FDC002E0040460025E3442302140E1C431B0C38
:100FEC00994623041F0C1202494600920197FFF701
:100FFC002FF902007A430B04310C804619438A42C4
:10100C000BD901235B429C460919E0448C4204D85D
:10101C008A4202D9831E98460919881A4946FFF755
:10102C0017F909048C4631046646019A090C4243AF
:10103C00030031438A4204D90919013B8C4200D880
:10104C0011E1891A4246009E12041A43330C1F0008
:10105C00100C9046029313043204160C32001B0C35
:10106C005A4303967B4346437843170CBC469B1963
:10107C0063449E4203D980267602B44660441E0C1B
:10108C00301816041B04360C9E19814200D29CE0C9
:10109C0000D197E0AE1B091AB54280414042081AB4
:1010AC00844200D111E14946FFF7D2F8019A0B04B2
:1010BC004243310C050019438A4207D90919013DF5
:1010CC008C4203D88A4201D9851E0919881A4946CF
:1010DC00FFF7BEF809048C4631046646019A090CE8
:1010EC004243030031438A4207D90919013B8C4220
:1010FC0003D88A4201D9831E0919039E891A32002A
:10110C002D041D43029F2B041B0C5A437B439C460E
:10111C00280C4643130CB444634478439E4203D9D1
:10112C0080267602B44660441E0C12041B04120C7A
:10113C0030189B18814206D302D001231D43CEE602
:10114C00002B00D1CBE661186E1EA14200D2A4E0A8
:10115C00814200D2C9E000D1D9E03500EDE701258C
:10116C006D420121891A382900DD4CE61F2900DC6B
:10117C007FE01F235B429A1A4346D340202904D0B8
:10118C004446654A5A44944025436A1E95410722B9
:10119C002B43150000241D401A4200D1A1E00F2260
:1011AC0000241A40042A00D198E01A1D9A429B414F
:1011BC005B42E4181300220200D48FE001230024C8
:1011CC00002523E6B54200D364E743465A1E009B34
:1011DC009C4665441F009D429B415B421B19C918EC
:1011EC008C423AD2884263D860D0904652E7AA42E9
:1011FC0000D9EAE64346DE0758086B081E43ED07A4
:10120C00EAE6484601F056F801000200153120329A
:10121C001C2900DC1AE64B4608388340002598460A
:10122C0020E601F047F803001A00153220301C2A82
:10123C0000DC30E65446083B00229C4035E60F2388
:10124C002B40042B00D152E605235B42AB429B4161
:10125C0004355B42ED0898444AE68C42C5D1AF4256
:10126C00C0D9904616E78A4200D8EAE6831E0919CF
:10127C00E7E62A4A28005A44434695409340C84022
:10128C006A1E9541444603432B43CC405A0792D0E7
:10129C000F221A40042A88D18DE73500814200D0F4
:1012AC004BE7009A934200D047E718E6AE429CD930
:1012BC0002235B429C46009BE0449C4665449D4255
:1012CC009B415B421B19C918E4E6154A5A44002A93
:1012DC0000DC44E701230025984409E66507640215
:1012EC00240BDB081D43002390E5009E023D720099
:1012FC00B242BF417F423C1909190092CEE78024CB
:10130C00434624031C432403064B240B7EE5009A1E
:10131C009A42EAD33500C4E73E0400001E040000E4
:10132C00FF030000FF070000F0B54F464646D646C7
:10133C00944691461A03120B184DC0B54C000F037E
:10134C0092465A00060080463F0B0120640DC90FDF
:10135C00520DDB0FAC420AD0AA4203D0944201D109
:10136C0057450DD0E0BCBA46B146A846F0BD3D008D
:10137C003543F7D1A242F5D1524665462A43F1D105
:10138C000120C845EED1994206D0002CEAD13E434B
:10139C003000461EB041E5E70020E3E7FF07000000
:1013AC00F0B54E4645465746DE4604001800E0B5FB
:1013BC0016001B031B0B324D0F034A0099464300CA
:1013CC00A446B0463F0B520DC90F5B0DC00FAA428D
:1013DC0029D0AB4218D0002A2AD13C43A3466542FF
:1013EC006541002B02D14C46264327D0002D15D148
:1013FC00814228D00220013908400138F0BCBB469C
:10140C00B246A946A046F0BD4D462E432FD1002A28
:10141C00EED13C4365426541002DE9D00028EDD169
:10142C0001204042EAE73D00254320D19342EBD016
:10143C00002BDDD14C462643DAD1DBE75B4600209E
:10144C00002BDBD0D6E79A420ADCE7DB4F45D1D83C
:10145C0010D000204F45D1D20029E1D00800CDE7B3
:10146C00434258410223404218400138C6E702204B
:10147C004042C3E7C445BDD80020C445BED2EBE70B
:10148C00FF070000F0B54E4645465746DE460400C1
:10149C001800E0B516001B031B0B314D0F034A005F
:1014AC0099464300A446B0463F0B520DC90F5B0D45
:1014BC00C00FAA4211D0AB4214D0002A2FD13C430A
:1014CC00A34665426541002B14D14C46264311D1ED
:1014DC005B460020002B17D010E03D00254312D1B5
:1014EC0093421CD14D462E430DD1002A04D13C43CE
:1014FC0065426541002D0DD1814216D00220013983
:10150C000840013800E00220F0BCBB46B246A946B8
:10151C00A046F0BD0028F7D101204042F4E7002B93
:10152C00EAD14C462643E7D1E8E79A4206DD43422E
:10153C0058410223404218400138E5E79A42E9DB62
:10154C004F45DBD806D000204F45DDD20029E3D033
:10155C000800D9E7C445D1D80020C445D4D2F5E75A
:10156C00FF070000F0B557464E464546DE46E0B54F
:10157C0098460C034B000600924687B0240B5B0D7B
:10158C00CF0F002B6CD0DD4A934200D186E0420F86
:10159C00E4001443802212041443D94AC500944633
:1015AC0063440093002399469B46434642461E03E0
:1015BC00D20F5B0050469046360B5B0D00D178E0A5
:1015CC00CE4A93421DD0CE49420F8C4600996344BB
:1015DC00F6008C46164380229C4412046346164344
:1015EC00C200002000930099434601318C464946C5
:1015FC007B4001930F2900D97EE0C24B89005958DA
:10160C008F465246009B324300D056E1BB49002620
:10161C008C466344494600930223194389460220B1
:10162C00E1E7434601933400150083465B46022BE9
:10163C005ED0032B00D1F3E1012B00D018E1002286
:10164C0000240025019B12052243DB071A432800C6
:10165C00110007B0F0BCBB46B246A946A046F0BD8F
:10166C002500054300D141E1002C00D1ADE1200063
:10167C0000F020FE010002000B391D2310005B1A44
:10168C003100350008388440D94085400C439E48D1
:10169C00831A0093002399469B4686E70500254351
:1016AC0000D01CE1082200930223002491469B46A3
:1016BC007BE75246324300D10AE1002E00D176E19D
:1016CC00300000F0F7FD02000B3A1D2301009B1ABD
:1016DC0052460839DA408E40164352468A40009BE7
:1016EC008949181A03008C466344002000937AE75A
:1016FC0000240025814AA5E72F0C2D042D0C2B006E
:10170C00110C1204120C53439846130028007B430F
:10171C00994648434844834640460B00000C824699
:10172C0058467B4350440293814506D99A46802300
:10173C005B029946CA4453460293030C9B464346AC
:10174C001B0400041B0C9846030043440493330C05
:10175C0099462B003604360C7343984633007B4372
:10176C009A464B465D435F4343465544180C40191B
:10177C00824503D980235B029A465744050CEB192A
:10178C00059343461D042D0C00044019250C24041C
:10179C00240C270057436A4390462A003B0C9A4678
:1017AC004A436143414451448344884503D98023CF
:1017BC005B02984642443F040B0C3F0C0904C919C8
:1017CC00270098464B4677435C436E435D433B0C86
:1017DC009946A4194C4442440395A64204D980234B
:1017EC005B02984645440395029B3F045B441E00F4
:1017FC008342804123049846059B3F0C47449846FE
:10180C0076188E428941474440423D18A84693467B
:10181C0049428A46C3449F42BF4180458041039B55
:10182C00DA449846534640427F420743240C934582
:10183C0092418A4589413F19DC0D049B75021D4379
:10184C00681E85415346524249420A43BF184744D9
:10185C00F60D7F0235435A023C431543FB0100D47D
:10186C00C1E001216A080D401543E20715436408E5
:10187C0026496144002956DD6B0709D00F222A4006
:10188C00042A05D02A1DAA42AD416D4264191500E7
:10189C00E30104D580211E4AC900144061441D4A4D
:1018AC00914200DD24E76207ED0864024905154307
:1018BC00240B4A0DC6E60197B8E6104A032094465D
:1018CC0063444A46009303231A43914652468AE6E0
:1018DC0049460123194389460026012083E60C2240
:1018EC0000930323050091469B465EE6042399462C
:1018FC0000230093013300249B4656E6FF070000AB
:10190C0001FCFFFFF80601080DFCFFFFFF030000C0
:10191C00FFFFFFFEFE070000002380240025444A41
:10192C00019324038EE60120401A382800DD86E658
:10193C001F285BDD1F2223005242511ACB40190095
:10194C00202803D03B4A6244944025436A1E9541AB
:10195C002A000A4307210D000024154011425BD0D8
:10196C000F2100241140042953D0111D91429241A2
:10197C005242A4180A0023024BD501220024002550
:10198C0060E680231B031C4209D01E4207D133435F
:10199C001C0343461500240B254A019352E6802272
:1019AC00120314432403224A240B01974AE600F045
:1019BC0081FC03001A00153220301C2A00DC84E65E
:1019CC005646083B00229E4089E600F073FC01005D
:1019DC000200153120321C2900DC4EE63400083898
:1019EC000025844053E6009B9C4641E712492200A7
:1019FC0061442E008D408A40C640691E8D413243A1
:101A0C002A43C4405307B6D00F2111400429ACD14E
:101A1C00B1E765076402240BD2081543002211E6D6
:101A2C008022120314432403014A240B0AE6C04605
:101A3C00FF0700003E0400001E040000F8B55746E6
:101A4C004E464546DE460400E0B51F0010000B0371
:101A5C00620F4E00CD0F5B0A39031343490AE200B3
:101A6C00440F2143C24C91469246C0007A008046F6
:101A7C00760D520DFF0FA24200D1B4E00124674055
:101A8C00BB46BD4200D188E0B41AA446002C00DC51
:101A9C00B2E0002A00D1C5E0B54A964200D18BE2F3
:101AAC008022120411436246382A00DDA1E11F2A6C
:101ABC0000DD16E220270C00BF1ABC400200A04635
:101ACC006446B840E240444614430200501E824132
:101ADC006046C14022435B1A49468C1AA14592418B
:101AEC0052429B1A984643461B0200D417E14346C8
:101AFC005B025B0A98464346002B00D16CE14046E2
:101B0C0000F0D8FB0200083A202120004346891A35
:101B1C009340C84094400343964200DD57E1961B26
:101B2C00711C1F2900DDCBE1202218002600521A5F
:101B3C0094409040CE40CB40621E94413043984636
:101B4C0000260443630709D00F232340042B05D040
:101B5C00231DA342A4416442A0441C0043461B0223
:101B6C0000D4DFE0824B01369E4200D1FBE04246BE
:101B7C00804BE4081A401300710552075B022243A4
:101B8C001B0B490D0905ED07194329431000F0BC47
:101B9C00BB46B246A946A046F8BDB41AA446002CD2
:101BAC0058DD002A00D19EE0714A964200D13BE1FB
:101BBC008022120411436246382A00DDC1E01F2A3C
:101BCC0000DCBBE10C00203AD44022006446202CFF
:101BDC0004D040273F1BB940084380464446611E51
:101BEC008C411443B1E00C0004432AD0BB46BD42E7
:101BFC002DD0614CA446B4446446002C5CD0941B9C
:101C0C00A446002E00D015E14D461D4300D1C3E182
:101C1C00651E012C00D10CE2554EB44200D1F8E106
:101C2C00AC460EE10A00024300D136E12200013A33
:101C3C00012C00D1C6E14E4CA44500D1F4E09446F1
:101C4C0031E701246740BB46BD4200D01CE74A4C3B
:101C5C00A446B4446446002C00D1CFE0941BA446A7
:101C6C00002E00D15CE1424EB24200D1ECE1802664
:101C7C00360433436446382C00DDB3E11F2C00DD01
:101C8C0038E22026361B1C00B4404F46A046644662
:101C9C00E74044463C434F46B7403E00771EBE41AA
:101CAC0034436646F340C918241884429B415B4276
:101CBC009846160088444EE0304A741C144200D0FA
:101CCC00D6E04A461A43002E00D05BE1002A00D130
:101CDC00A5E10A00024300D0BBE14A465907D208ED
:101CEC000A43DB0827E00A00024300D174E122001A
:101CFC00013A012C05D01E4CA44500D194E0944629
:101D0C0059E74844484592415B18984604005242B2
:101D1C009044434602261B0200D5C4E0013E6307F3
:101D2C0000D011E74346B4465907E2080A43DB08E2
:101D3C000F498C4540D061461B0349051B0B490DCF
:101D4C0020E701430C00611E8C414C444C459241F0
:101D5C0052429046984443461B02E0D5044B013650
:101D6C009E4200D09FE03100002300220AE7C046CB
:101D7C00FF070000FFFF7FFF01F8FFFFFE070000D9
:101D8C00002A00D160E10A0002434DD04A465C07AC
:101D9C00D20822438024DB082403234207D0CE0838
:101DAC00264204D15D463300C20849070A43510F4D
:101DBC00D200D20849070A431100194300D1C8E1E7
:101DCC00802109030B431B03D5491B0BDAE6D549CC
:101DDC00B61A0B409846B5E6200000F06BFA0200EC
:101DEC0018321F2A00DC8FE62300083883400024B9
:101DFC0092E608430200501E82416DE6CA4C721CEA
:101E0C00224200D0ADE04A461A43002EB8D1002A37
:101E1C0000D158E10A00024300D059E14A46590763
:101E2C00D2080A43DB0886E74A465907D2080A4318
:101E3C00DB08C1E7BA4DAA4200D11EE180252D0472
:101E4C002B436446382C5DDC1F2C00DDD0E02025B4
:101E5C0067462D1B4E461C00FE40AC4034434E469C
:101E6C00AE403500FB406E1EB541C91A2C434EE006
:101E7C004A46141AA1459241524290465F1A3A00C2
:101E8C004746D21B9046120200D58BE042462243B5
:101E9C0000D030E6002300254DE74A465907D2080A
:101EAC000A43DB0844E742469E4B61081A40130084
:101EBC00012214400C43DA075B089846144341E6B0
:101ECC001A001F3EF2401600202903D04022511A5E
:101EDC008B401C43621E94410023344398460026D9
:101EEC001DE70C00203AD44022006446202C04D07C
:101EFC0040273F1BB940084380464446611E8C4135
:101F0C002243E9E54C4623431C00631E9C41041B01
:101F1C00A0429B415B42CB1A98465D461600E2E517
:101F2C004E461E4300D1AEE0661E012C00D1FDE0F2
:101F3C007B4FBC4200D107E1B4469BE664462022AD
:101F4C00121B0C00944007009040A0466446421EB1
:101F5C0090416246E7404446D1403C4304435B1801
:101F6C00F3E66F4CA24200D1D5E048445B184845DB
:101F7C00894149425B18DC0740085B08984616000B
:101F8C000443CCE6002A00D082E00A00024340D190
:101F9C00802300251B0313E74B07C2081A435D4639
:101FAC00CB08C5E64A46841AA0429241CB1A52424B
:101FBC009B1A98465D469EE54A465907D2080A4345
:101FCC00DB08F9E64A46141AA14592415B1A5242C3
:101FDC009B1A9846012686E54A465907D2080A43B9
:101FEC00DB08A5E64C4623431C00631E9C415BE6C4
:101FFC0065461E00203DEE40202C05D040252D1BB3
:10200C00AB404C461C43A2465446631E9C41344391
:10201C007DE74B07C2081A435D46CB08CCE60A00A5
:10202C00024300D136E74B07C2081A435D46CB0882
:10203C0081E64A46841AA0429241CB1A52429B1A1C
:10204C0098465D4601264EE54B07C2081A43CB085D
:10205C00B2E64A46141AA14592415F1A5242BA1A84
:10206C00904612026BD54A46841AA0429241CB1A72
:10207C0052429B1A98465D4664E54B07C2081A43C8
:10208C005D46CB0898E64B07C2081A43CB084FE6CF
:10209C000A00024390D04A465C07D20814438022BF
:1020AC00DB081203134208D0CE08164205D1C00833
:1020BC004907084304005D463300610FE2004907FD
:1020CC00D2080A4378E64B07C2081A43CB0832E61B
:1020DC0048445B18484592419846524290444346C6
:1020EC0004001B0200D41AE642460E4B01261A408D
:1020FC00904614E666461F00203EF740202C05D083
:10210C004026361BB3404C461C43A2465446631E25
:10211C009C413C43C8E511000023002232E5C04637
:10212C00FF070000FFFF7FFFFE0700004A46141860
:10213C00844292415B18984652429044E9E54246EB
:10214C00224300D1A6E6EAE54B07C2081A43CB08A6
:10215C0032E600220149130014E5C046FF070000D7
:10216C0070B505000C480C03160049001A035B00FF
:10217C00240B490D120B5B0D814208D0064900203F
:10218C008B4203D132431000421E904170BD01209E
:10219C002C43FBD1F2E7C046FF0700000A0030B524
:1021AC00134C530009030500090B00205B0DD20FE3
:1021BC00A34204DD0F48834202DD0F4BD01830BD23
:1021CC008020400301430D48C01A1F2808DD0C482D
:1021DC00C31AD9400B005842002AF0D11800EEE780
:1021EC00084CC540A446634499400B002B43F2E7CE
:1021FC00FE0300001D040000FFFFFF7F33040000FE
:10220C0013040000EDFBFFFF70B5002816D0C317B8
:10221C00C5185D40C40F280000F04CF8114A121A82
:10222C000A2816DC03002E0015339E400B23181AC7
:10223C00C54053052D032D0B5B0D03E0002400233B
:10224C00002500261B052B43E4072343300019000F
:10225C0070BD0B38854053052D0300262D0B5B0DEF
:10226C00F0E7C0461E04000010B5041E10D000F0AC
:10227C0021F80F4B1B1A0A2811DC0B222100121A11
:10228C00D14015300A035B058440120B5B0D01E055
:10229C00002300221B0513432000190010BD22004F
:1022AC000B3882405B0512030024120B5B0DF1E727
:1022BC001E0400001C2101231B04984201D3000CB6
:1022CC0010391B0A984201D3000A08391B0998429D
:1022DC0001D30009043902A2105C40187047C046B3
:1022EC0004030202010101010000000000000000D3
:1022FC0010B5002903D1FFF7DDFF203002E0081CE8
:10230C00FFF7D8FF10BDC046F0B5CE46474680B5A6
:10231C0089B01422002103A80BF02DFA2D4B596B18
:10232C00042211435963596B0A400092009A5A6B6C
:10233C0001252A435A635A6B2A400192019A596B20
:10234C000222114359635B6B1A400292029BC02418
:10235C002402214B994600222100180001F05BFA5F
:10236C0090231B019846A027FF0500221900380076
:10237C0001F051FA194E00220821300001F04BFAFD
:10238C000394049500240594069403A9484601F08F
:10239C007DF94346039304950594069403A93800EC
:1023AC0001F074F90823039304950594069403A98A
:1023BC00300001F06BF980235B000393084B04930E
:1023CC00059403A9300001F061F909B0C0BCB9460D
:1023DC00B046F0BD00100240000800500004005050
:1023EC000000111072B6FEE710B51248124B0360D4
:1023FC00124B4360002383600122C260036143617E
:10240C008361C361036201F043FF00280CD10021FA
:10241C00084802F0DDF9002808D10021054802F037
:10242C0003FA002804D110BDFFF7DCFFFFF7DAFF39
:10243C00FFF7D8FF6402002000540040BC7D7010F0
:10244C0010B51748174B0360E1235B024360002370
:10245C008360C36003610C2242618361C3610362C8
:10246C004362836203F002F9002811D100210C4869
:10247C0003F03EFA00280DD10021094803F05EFA62
:10248C00002809D1064803F013FA002806D110BD24
:10249C00FFF7A8FFFFF7A6FFFFF7A4FFFFF7A2FFC8
:1024AC00FC0200200044004010B50C480C4B0360AB
:1024BC00E1235B02436000238360C36003610C2251
:1024CC0042618361C36103624362836203F0CEF8AD
:1024DC00002800D110BDFFF785FFC0468C030020FB
:1024EC000048004000B585B00C22002101A80BF07B
:1024FC0042F91948194B036080231B0643600023E3
:10250C008360C36003610422426103764376837661
:10251C00033AC2611F328354436283620C32835488
:10252C0003634363836310328354C36401F0FCFA86
:10253C0000280CD10A4B019300230293039301A9A9
:10254C00054801F033FC002803D105B000BDFFF7AE
:10255C0049FFFFF747FFC04600020020002401405E
:10256C004000001800B589B01022002104A80BF01F
:10257C0002F90C22002101A80BF0FDF8144880236D
:10258C00DB05036000234360836001225242C2607A
:10259C000361836100F0CCFA002813D180235B0126
:1025AC00049304A90A4800F0FFFA00280CD1002378
:1025BC000193039301A9064800F068FB002805D19C
:1025CC0009B000BDFFF70EFFFFF70CFFFFF70AFF86
:1025DC00B002002000B5A1B03822002112A80BF0E7
:1025EC00CAF8102200210EA80BF0C5F834220021E5
:1025FC0001A80BF0C0F88020800001F09BF90223A9
:10260C0012938022520015920022169240211791AB
:10261C0019931A931B9206331C9380239B021D93D0
:10262C0080239B041E9380239B051F9312A800F00C
:10263C006DFB002819D107230E93053B0F93002344
:10264C001093119302210EA800F01CFE00280ED14D
:10265C00094B0193002303930593099301A800F000
:10266C00F1FE002805D121B000BDFFF7BBFEFFF73E
:10267C00B9FEFFF7B7FEC0462240000070B582B02D
:10268C0005000E1E0DD0941B01940F2C0ED828683B
:10269C00012C14D0002C14D0220031000BF04FF878
:1026AC000FE09142EFD00B480AF0A7FC002201A9E1
:1026BC0028000AF07FFD2860019BAB60E7E73378C8
:1026CC000370019A6A602B689B1800221A7002B082
:1026DC0070BDC0463807010830B589B001F0D8F993
:1026EC00FFF778FFFFF710FEFFF77EFEFFF7A8FE5F
:1026FC00FFF7DAFEFFF7F6FEFFF734FF012001F0DB
:10270C00EDF908F0F9FF0368DD6902AC0094294A81
:10271C0011000D3900236846FFF7B0FF6946280009
:10272C0009F09EFF0098A04201D00AF0A5F808F02D
:10273C00E3FF040008F0E0FF0368D969200005F00E
:10274C003FFF08F0D9FF05F0F7FF08F0D5FF44680C
:10275C0008F0D2FF8168200003F0E1FA08F0CCFF0A
:10276C0003685C6A20200AF08FF8210003F012F94C
:10277C000C200AF089F804000E22432108F0F6FF21
:10278C0023685B6801212000984708F0B5FF0368B7
:10279C005B6A06AD2A0003CB03C22C200AF074F846
:1027AC000400622306996A6809F044F9200009F0D4
:1027BC007FF8FEE771070108FEE7FEE770477047F8
:1027CC0010B501F079F910BD10B5024802F09AF974
:1027DC0010BDC046FC02002010B5024802F092F970
:1027EC0010BDC0468C03002000B583B00B4B196C98
:1027FC00012211431964196C0A400092009ADA6B99
:10280C00802149050A43DA63DB6B0B400193019B82
:10281C00C020C00001F074F903B000BD00100240EC
:10282C0070B588B004001422002103A80AF0A3FF9D
:10283C002268194B9A4201D008B070BD174B196C25
:10284C0080204003014319641A6C02400092009AE4
:10285C00596B012211435963596B0A400192019A39
:10286C005A6B022422435A635B6B23400293029BF4
:10287C00C22303930326049600250595A02003A9E3
:10288C00C00500F003FF03940496059503A90448C2
:10289C0000F0FCFED0E7C0460024014000100240CE
:1028AC000004005010B588B004001422002103A8C5
:1028BC000AF061FF2268134B9A4201D008B010BD98
:1028CC00114C626B02231A436263626B13400193D7
:1028DC00019BC0230393AE3B0493113B0593002350
:1028EC0006930633079303A9084800F0CFFEE26B6A
:1028FC00802189030A43E263E36B0B400293029B42
:10290C00DCE7C046005400400010024000040050B8
:10291C0082B002688023DB059A4201D002B0704776
:10292C00044AD16B01231943D163D26B1340019339
:10293C00019BF3E700100240F0B58BB004001422A9
:10294C00002105A80AF017FF2368344A934204D0EB
:10295C00334A934229D00BB0F0BD324BD96B802057
:10296C0080020143D963DA6B02400092009A596BE2
:10297C000122114359635B6B13400193019B0C23A0
:10298C0005930A3B06930023079308930992A02012
:10299C0005A9C00500F07AFE002200211C2000F0E1
:1029AC00F3FF1C2001F020F8D5E71E4BD96B8020DB
:1029BC00C0020143D963DA6B02400292029A5A6B4D
:1029CC00012632435A635A6B32400392039A5A6B74
:1029DC0002252A435A635B6B2B400493049B2023F0
:1029EC000593069500240794089404270997A020C2
:1029FC0005A9C00500F04AFE0596069507940894B3
:102A0C00099705A9084800F041FE002200211D206D
:102A1C0000F0BAFF1D2000F0E7FF9CE700440040E7
:102A2C0000480040001002400004005030B5036A1A
:102A3C00046A0125AC4304628469EF35AC4312018E
:102A4C0022430A24A3430B438261036230BD00007E
:102A5C0030B5036A1024A34303628469036A054DED
:102A6C002C4012032243A024A34309011943826181
:102A7C00016230BDFF0FFFFF8368034A13400B4315
:102A8C0007210B43836070478FFFCFFF0368214AF8
:102A9C00904206D08022D205904202D01E4A90422B
:102AAC0003D1702293434A6813431A4A904212D0BE
:102ABC008022D20590420ED0174A90420BD0174A72
:102ACC00904208D0164A904205D0164A904202D045
:102ADC00154A904203D1154A1340CA681343802209
:102AEC0093434A69134303608B68C3620B68836228
:102AFC00084B984208D00A4B984205D0094B984293
:102B0C0002D0094B984201D10B6903630123436145
:102B1C007047C046002C01400004004000200040DB
:102B2C00004001400044014000480140FFFCFFFF11
:102B3C0070B5041E2AD03D23C35C002B20D03D254C
:102B4C0002236355210001C9FFF7A0FF012348228E
:102B5C00A3540A3AA3540132A3540132A3540132B0
:102B6C00A3540132A3540132A3540132A3540132B1
:102B7C00A3540132A3540132A3546355002070BDF9
:102B8C003C330022C254FFF7C3FED8E70120F6E71E
:102B9C0030B58468034D2C401B0213430B43234375
:102BAC00836030BDFF00FFFF10B504003C23C35C05
:102BBC00012B66D03C230122C25401330132C25492
:102BCC00026893683048034093600B68602B44D0D4
:102BDC0024D8402B4BD00BD9502B0ED1CA68496846
:102BEC002068FFF723FF50212068FFF745FF04E022
:102BFC00202B0ED009D9302B0BD03D230122E254CF
:102C0C00013B0022E254002010BD002B01D0102B00
:102C1C00F3D119002068FFF72FFFEEE7702B10D0CF
:102C2C00802292019342E8D1CB684A688968206877
:102C3C00FFF7AEFF226891688023DB010B439360A2
:102C4C00DBE7CB684A6889682068FFF7A1FF226838
:102C5C00936877210B439360CFE7CA684968206873
:102C6C00FFF7F6FE60212068FFF706FFC5E7CA688C
:102C7C0049682068FFF7DAFE40212068FFF7FCFE68
:102C8C00BBE70220C0E7C0468800CEFF30B53C232E
:102C9C00C35C012B30D03C230122C25401330132DE
:102CAC00C254026853689468144DAA421FD0702510
:102CBC00AB430D682B4353600368104A934209D011
:102CCC008022D205934205D00D4A934202D00D4A80
:102CDC00934204D1802294438A6814439C603D2320
:102CEC000122C254013B0022C254002030BD064DCB
:102CFC002B404D682B43DAE70220F7E7002C01400C
:102D0C000004004000400140FFFF0FFF70B582B08F
:102D1C00041E00D134E20368DB0739D5C14A91683F
:102D2C0038230B40D16803220A40102B26D0082BE5
:102D3C0026D063688022520293427FD0A022D20216
:102D4C00934200D181E0B74B1A68B7490A401A6028
:102D5C001A68B6490A401A606368002B00D180E0FB
:102D6C0000F0B6FE0500AF4B1B689B0310D400F0BF
:102D7C00AFFE401B6428F6D9032002E2032AD6D109
:102D8C00A84B1B689B0303D56368002B00D1FAE1A9
:102D9C0023689B0731D5A34A936838210B40D1682F
:102DAC0003220A40102B6AD0002B6BD19D4A12686B
:102DBC00520503D5E268002A00D1E6E19948426841
:102DCC009B490A40616909020A434260002B0DD1FC
:102DDC00036898490B4021690B4303600368DB0AC5
:102DEC0007221A40944BD340944A1360944B1868B2
:102DFC0000F022FE002800D0C9E123681B0700D494
:102E0C0081E0884B9A6838231340182B73D0A36940
:102E1C00002B00D1B4E0834A136E01210B431366DF
:102E2C0000F056FE05007F4B1B6E9B076BD400F029
:102E3C004FFE401B0228F6D90320A2E1794A116803
:102E4C0080235B020B43136086E7764B1968802264
:102E5C00D2020A431A601968802252020A431A608D
:102E6C007AE700F035FE05006E4B1B689B038FD58F
:102E7C0000F02EFE401B6428F6D9032081E1022AC3
:102E8C0092D193E7E368002B22D0664A1368694914
:102E9C000B4021690B431360116880235B000B43CB
:102EAC00136000F015FE05005E4B1B685B0506D435
:102EBC0000F00EFE401B0228F6D9032061E15949AF
:102ECC004B685B4A13406269120213434B6094E7F0
:102EDC00544A13685B490B40136000F0F9FD050080
:102EEC00504B1B685B0588D500F0F2FD401B022897
:102EFC00F6D9032045E14B4B1B6E9B0703D5A36909
:102F0C00002B00D145E123685B0700D4A2E0454BC0
:102F1C009A6838231340202B45D0424BDB6BDB00E7
:102F2C004AD4404AD16B802040050143D163D36B16
:102F3C0003400193019B0125434B1B68DB053DD5E9
:102F4C00A368012B4ED0052B52D0364BDA6D0121E4
:102F5C008A43DA65DA6D03318A43DA65A368002B9C
:102F6C0050D000F0B5FD06002E4BDB6D9B076FD4E7
:102F7C0000F0AEFD801B354B9842F5D9032000E1E3
:102F8C00284A136E01218B43136600F0A1FD050046
:102F9C00244B1B6E9B07B6D500F09AFD401B0228F4
:102FAC00F6D90320EDE01F4BDB6D9B0752D5A368D0
:102FBC00002B4FD10120E4E00025BDE7224A116827
:102FCC0080235B000B43136000F082FD06001E4B58
:102FDC001B68DB05B4D400F07BFD801B0228F6D9FE
:102FEC000320CEE00F4AD36D01210B43D365B5E727
:102FFC000C4BDA6D04210A43DA65DA6D03390A43A6
:10300C00DA65ABE700F064FD0600064BDB6D9B0751
:10301C001ED500F05DFD801B0C4B9842F5D90320AA
:10302C00AFE0C04600100240FFFFFEFFFFFFFBFFBA
:10303C00FF80FFFFFFC7FFFF0024F4000C000020FF
:10304C0008000020FFFEFFFF007000408813000006
:10305C00012D26D0E369002B00D19CE0564A9168E3
:10306C0038220A40102A63D0022B20D0524B1A6807
:10307C0052490A401A60DA6803218A43DA60DA6836
:10308C004F490A40DA6000F023FD04004A4B1B68EC
:10309C009B014BD500F01CFD001B0228F6D9032028
:1030AC006FE0454AD36B47490B40D363D2E7424AA2
:1030BC00136842490B40136000F00AFD05003E4BBB
:1030CC001B689B0106D500F003FD401B0228F6D9B6
:1030DC00032056E0384AD3683B491940236A606A9A
:1030EC000343A06A00020343E06A0343206B0343DB
:1030FC00606B03430B43D360116880235B040B4369
:10310C001360D16880235B050B43D36000F0E0FCB7
:10311C000400294B1B689B0106D400F0D9FC001B52
:10312C000228F6D903202CE000202AE0002028E019
:10313C00012B32D0204BDA6803231340216A8B42D7
:10314C002DD170231340616A8B422AD1FE21C90113
:10315C001140A36A1B02994225D1F8239B0313400B
:10316C00E16A8B4221D1E0231B051340216B8B427A
:10317C001DD1520F5207636B9A421AD1002000E006
:10318C00012002B070BD0120FBE70120F9E701200E
:10319C00F7E70120F5E70020F3E70120F1E7012034
:1031AC00EFE70120EDE70120EBE70120E9E7012043
:1031BC00E7E70120E5E7C04600100240FFFFFFFEF5
:1031CC00FFFFFEEEFFFFFFEF8C80C11110B52A4B05
:1031DC009B6838221A4207D1274B1A68D20A072358
:1031EC0013402648D84010BD234B9A68382313400F
:1031FC00082B3BD0204B9A6838231340102B0DD052
:10320C001D4B9A6838231340202B31D01A4B9A68E7
:10321C0038231340182B26D00020E4E7164AD16837
:10322C000D3B0B40D2681209072111400131032BD1
:10323C000FD01248FCF786FF0F4BDA68120A7F2377
:10324C00134058430C4BD968490F0131FCF77AFFF6
:10325C00C9E70B48FCF776FF074BDA68120A7F23A5
:10326C0013405843EEE7FA20C001BCE70448BAE724
:10327C0080200002B7E7C046001002400024F40092
:10328C0000127A0070B504000D00002800D1AAE0ED
:10329C00574B1A68072313408B4221D323689A0794
:1032AC000ED55B0705D5534A9168E023DB010B4330
:1032BC009360504A936850490B40A1680B4393604C
:1032CC002368DB0754D56368012B20D0022B3BD03D
:1032DC00002B3FD1474A126852051CD401206AE0EA
:1032EC00434A136807218B432B43136000F0F0FB18
:1032FC0006003F4B1A6807231340AB42CED000F0B8
:10330C00E7FB801B3D4A9042F3D9032053E0394A36
:10331C001268920369D537498A68072082431343A0
:10332C008B6000F0D5FB0600324B9B6838221A40AC
:10333C006368DB009A421BD000F0CAFB801B2F4B4A
:10334C009842F1D9032036E02A4A12689201E2D45D
:10335C00012030E0032B05D0264AD26D9207DAD437
:10336C00012028E0234A126E9207D4D4012022E0D7
:10337C001F4B1A6807231340AB421DD823685B0709
:10338C0006D51C4A93681E490B40E1680B439360B9
:10339C00FFF71CFF174B9A68120A0F2313409B0070
:1033AC00184A9A581F231340D840174B1860174BD4
:1033BC00186800F041FB70BD0D4A136807218B4360
:1033CC002B43136000F084FB0600094B1A6807239B
:1033DC001340AB42D2D000F07BFB801B074B9842D2
:1033EC00F3D90320E7E70120E5E70120E3E7C04636
:1033FC000020024000100240FFF0FFFF8813000085
:10340C00FF8FFFFF740701080C000020080000204C
:10341C00014B18687047C0460C00002010B5FFF730
:10342C00F7FF064B9A68120B072313409B00044AC4
:10343C009A581F231340D84010BDC04600100240BC
:10344C00B4070108F0B583B0040003689B0362D590
:10345C00814BDB6BDB001ED47F4AD16B8020400597
:10346C000143D163D36B03400193019B01267B4A3B
:10347C00116880235B000B43136000F029FB0500EF
:10348C00764B1B68DB0508D400F022FB401B02289E
:10349C00F6D9032502E00026E9E70025002D23D10B
:1034AC006D4BD96DC02292000B001340114210D00D
:1034BC00226B9A420DD0684AD36D69490B40D06D8E
:1034CC00802149020143D165D16D66480140D16527
:1034DC00D365DB0710D4002D06D15F4AD36D60494C
:1034EC000B40216B0B43D365012E15D15A4AD36B7C
:1034FC005D490B40D3630FE000F0EAFA0700564B2E
:10350C00DB6D9B07E7D400F0E3FAC01B574B9842E6
:10351C00F5D90325DFE700252368DB0706D54E4ADE
:10352C00536D03218B4361680B43536523689B07E1
:10353C0006D5494A536D0C218B43A1680B43536547
:10354C002368DB0606D5444A536D49490B40E168B4
:10355C000B43536523689B0506D53F4A536D45497C
:10356C000B40A1690B43536523685B0506D53A4AAA
:10357C00536D41490B40E1690B43536523689B062E
:10358C0006D5354A536D3D490B4021690B435365B4
:10359C0023685B040BD5304A536D9B009B08216A52
:1035AC000B4353658023DB05226A9A4239D023688A
:1035BC001B0306D5284A536D40218B43616A0B438C
:1035CC00536523689B020BD5234A536D2C490B4042
:1035DC00A16A0B4353658023DB03A26A9A4227D06E
:1035EC0023685B020BD51C4A536D26490B40E16ADC
:1035FC000B43536580235B04E26A9A421FD0236815
:10360C001B050BD5144A536D1F490B4061690B43C5
:10361C00536562698023DB019A4215D0280003B000
:10362C00F0BD0D4AD16880235B020B43D360BEE72B
:10363C00094AD16880235B040B43D360D0E7064A68
:10364C00D1680B43D360DAE7034AD16880235B026D
:10365C000B43D360E2E7C04600100240007000400C
:10366C00FFFCFFFFFFFFFEFFFFFFFFEF88130000D3
:10367C00FFF3FFFFFFFFF3FFFFFFCFFFFFCFFFFFC6
:10368C00FFFFBFFFFFFFFFFEFF3FFFFFF0B5CE4682
:10369C00474680B5002336E0032600E00026A6400E
:1036AC0034003C43544E1832920094518022B4584A
:1036BC00EA432600AE434F68FF0301D52C43260096
:1036CC004D4C8027E6518426A459260016404F689D
:1036DC00BF0301D52C432600474C8427E6512468B0
:1036EC00260016404F68FF0201D52C432600424CA1
:1036FC002660646822404E68B60201D52A00224337
:10370C003D4C626001330C682200DA406FD001221C
:10371C009A40250015401442F4D04C68661E012EC8
:10372C0003D9112C01D0122C12D184685F0003260E
:10373C00BE40B4432600CC68BC403443846044682B
:10374C0094434A681609012232409A40224342604F
:10375C00C4685F000326BE40F2439446B44326007F
:10376C008C68BC403443C4604A68022A01D0122AD7
:10377C0010D1DE080836B2009146145807221A40C0
:10378C0092000F269640B4430E69964032002243B5
:10379C004C46225004686246144003224E68324064
:1037AC00BA40224302604A68D200ABD59A08140092
:1037BC001834A400104EA75903241C40E4000F2613
:1037CC00A640B743A026F605B04200D166E70B4EE3
:1037DC00B04208D00A4EB04207D00A4EB04200D1D7
:1037EC005AE705265BE7012659E7022657E7C0BCD6
:1037FC00B946B046F0BDC046001802400004005067
:10380C0000080050000C005003690B4201D001204D
:10381C0070470020FCE7002A01D08161704781626B
:10382C00FCE7426913000B401B049143194381616F
:10383C007047000030B5002836D02523C35C022B1E
:10384C0006D00423C36320330022C254012030BDB0
:10385C00026813680E218B431360426C1368134982
:10386C000B40136001680A6801239A430A60104CEC
:10387C0062681C21056C29408B4013436360836C88
:10388C00C26C5A60036D002B06D01A6807490A40B7
:10389C001A60436D826D5A6025230122C254013B8C
:1038AC000022C2540020D2E70120D0E7FFFEFFFF28
:1038BC000000024070B52523C35C022B03D0042307
:1038CC00C363012070BD026813680E218B43136023
:1038DC0001680A6801239A430A60416C0A68134C18
:1038EC0022400A60124C62681C21056C29408B40F6
:1038FC0013436360836CC26C5A60036D002B06D05B
:10390C001A680A490A401A60436D826D5A60252371
:10391C000122C254013B0022C254836B002B02D003
:10392C0098470020CEE70020CCE7C046FFFEFFFF03
:10393C000000024010B5104A136810490B400343B5
:10394C00136080239B00984201D0002010BD0C4BCB
:10395C001B685800C01840000A49FCF7F3FB013003
:10396C00054B5B695B0503D5002803D00138F7E7ED
:10397C000020EBE70320E9E700700040FFF9FFFFB0
:10398C000C00002040420F0070B5002811DB8308AA
:10399C00134EC0339B009D5903242040C000FF22CE
:1039AC0014008440A54389010A4082402A439A515D
:1039BC0070BD0F230340083B9B0806339B00094A4C
:1039CC00944663445C6803221040C000FC3215002E
:1039DC008540AC4389010A40824022435A60E7E7A4
:1039EC0000E100E000ED00E0002805DB1F2318409B
:1039FC001E3B8340014A13607047C04600E100E063
:103A0C00013880235B0498420FD2094A5060094860
:103A1C00036A1B021B0AC02109060B430362002325
:103A2C00936007331360002070470120FCE7C04609
:103A3C0010E000E000ED00E010B50400114B197827
:103A4C00002901D1012010BDFA208000FCF77AFB7F
:103A5C0001000D4B1868FCF775FBFFF7D1FF002830
:103A6C000DD1032C01D90120EDE7013000222100FA
:103A7C004042FFF789FF054B1C600020E3E7012063
:103A8C00E1E7C046040000200C00002008000020E4
:103A9C0010B5084A116880235B000B4313600020AB
:103AAC00FFF7CAFF041E02D00124200010BDFEF750
:103ABC009BFEFAE700200240034B1B78034A116877
:103ACC005B1813607047C046040000204C040020B3
:103ADC00014B18687047C0464C04002070B50400B8
:103AEC00FFF7F6FF0500631C02D0044B1B78E418AB
:103AFC00FFF7EEFF401BA042FAD370BD040000207C
:103B0C00034A136803490B40034313607047C046D4
:103B1C0000000140FFF9FFFF024B802212059A6062
:103B2C007047C04600ED00E0F0B583B00400002300
:103B3C000193002800D122E1836D002B12D0236861
:103B4C009A68D2001BD49A688E4911408022520583
:103B5C000A439A608C4B18688C49FCF7F3FA4000C6
:103B6C00019009E0FEF75CFE0023E3655422A354A8
:103B7C00E5E7019B013B0193019B002BF9D12368E5
:103B8C009A68D20009D4A26D10210A43A265E26D95
:103B9C000F390A43E265012000E0002099680425F2
:103BAC002A000A400D4200D00122A16DC90600D5A1
:103BBC00DEE0002A00D0DBE0A16D754D2940063512
:103BCC00FF352943A1659968C90733D4D9681635DF
:103BDC00A943A5682943D9606368990F8907236CA9
:103BEC001943636C1943A36C1943E36C19433C23CD
:103BFC00E35C012B1CD025682B69664E33400B43CC
:103C0C002B616368C0252D06AB4214D08025ED05D1
:103C1C00AB4210D080252D06AB420CD05E4E3568E1
:103C2C005E4F3D40F027BF033B402B43336002E027
:103C3C001943E0E71100237E9B03657EED032B43C4
:103C4C00A67E75032B43256B002D01D080256D01BD
:103C5C002B43E5682B432569002D49DB8025AD03FB
:103C6C002B432C25655D6D002B432025655D012DB7
:103C7C0041D0656A002D05D0E02676003540A66A55
:103C8C0035432B432668F568454F3D401D43F56091
:103C9C0026683569434F3D40294331612568696980
:103CAC000726B143666B31436961266871697025DB
:103CBC00A943A56B2D01294371612169002929D1E3
:103CCC0021688D6A102252422A438A622268D26885
:103CDC0035490A409A4242D0A36D12229343023ACC
:103CEC001343A365E36D0F3A1343E365012044E0EE
:103CFC006D006D08B4E7002E03D180256D022B43B7
:103D0C00B7E7A56D20263543A565E56D1F3E354308
:103D1C00E565AEE78025AD03A942D7D1072A08D8BF
:103D2C009100256ECD400F2129400F2901D0013281
:103D3C00F4E7012A0DD02568AA6AE269013A9200DB
:103D4C001C211140102252428A40216E0A43AA6261
:103D5C00BCE721688D6A113A2A438A62B6E70023D0
:103D6C00E365A36D03229343023A1343A36504E076
:103D7C00A36D10221343A365012003B0F0BD0120F5
:103D8C00FBE7C046E8FFFF6F0C000020400D03006E
:103D9C00FDFEFFFF02FCFF1F08270140FFFFC3FFD2
:103DAC001902FEFF02FCFFDFE7FF3F83F0B583B093
:103DBC0004000023019305695433C35C012B00D12B
:103DCC0030E154230122C254006883680332160088
:103DDC001E401A4209D0A36D1C321343A365012067
:103DEC0054230022E25403B0F0BD4B68022B00D1E7
:103DFC00D6E080221206954226D08B4A954223D0DB
:103E0C001F221340103A9A40256E95432A000D68E4
:103E1C006F032FD1AD0E1F262E409E4016432666F3
:103E2C004D68AB080133E269934213D8826A1F23B1
:103E3C001D40103B1E00AE40B2430E68B60E334020
:103E4C00AB401343836205E0826A0B685B035B0B38
:103E5C0013438362206842690B681B029A438D6886
:103E6C002B40724D2B40134343610B68002B4FDBEF
:103E7C000020B5E7EF07D0D4AE0727D46E0727D4C0
:103E8C002E0727D4EE0627D4AE0627D46E0627D4E9
:103E9C002E0627D4EE0527D4AE0527D46E0527D4DD
:103EAC002E0527D4EE0427D4AE0427D46E0427D4D1
:103EBC002E0427D4EE0327D4AE0327D48027FF0289
:103ECC002E003E403D42A8D01226A6E70126A4E7CC
:103EDC000226A2E70326A0E704269EE705269CE718
:103EEC0006269AE7072698E7082696E7092694E718
:103EFC000A2692E70B2690E70C268EE70D268CE718
:103F0C000E268AE70F2688E7102686E7112684E717
:103F1C00474A1168E02252040A404648834207D0BF
:103F2C004548834222D0454883422CD0002057E795
:103F3C000802F5D480231B041A433D490B68404802
:103F4C0003401A430A603F4B18683F49FCF7FAF8E4
:103F5C0043001B189B000133019302E0019B013BC2
:103F6C000193019B002BF9D1002039E7C801DAD469
:103F7C0080235B041A432E490B68314803401A43D3
:103F8C000A6000202CE74B024AD48023DB031A433F
:103F9C0027490B682A4803401A430A6000201FE790
:103FAC0080231B069D4202D01F4B9D4205D1826A85
:103FBC000B685B035B0B9A4382620B68002B01DB83
:103FCC0000200DE71A4A12681A498B4207D01A4989
:103FDC008B420FD019498B4217D0002000E7A02349
:103FEC005B041A4012490B68154803401A430A60D7
:103FFC000020F5E6C0231B041A400D490B6810483D
:10400C0003401A430A600020EAE6C0235B041A400E
:10401C0007490B680A4803401A430A600020DFE690
:10402C000020DDE60220DEE60400008000FFFF0732
:10403C0008270140001000B0004000B8002000B478
:10404C00FFFF3FFE0C000020400D030003689A693F
:10405C00920701D500229A6203689A69D20703D4A9
:10406C009A6901210A439A6170470000F0B5059CDA
:10407C0005686868660D8027FF003740054E3E4393
:10408C00B0438905890D120411431943214301439F
:10409C006960F0BDFF63FF03F8B505000F00160063
:1040AC0003689B69DB0601D40020F8BD2B689C6972
:1040BC00A20615D47B1CF9D0FFF70AFD801BB84271
:1040CC0001D8002FF2D16B6C202213436B64412377
:1040DC00EA5400232232AB54023AAB540120E4E7F9
:1040EC001022DA612B682024DC612800FFF7AEFF78
:1040FC002A68536807490B4053606B6C04221343C6
:10410C006B644123EC5400233E32AB54023AAB5463
:10411C000120CAE700E800FE70B504000D0016008F
:10412C0023689B699B071CD4320029002000FFF7F1
:10413C00B3FF002817D16B1CF2D0FFF7C9FC801B12
:10414C00A84201D8002DEBD1636C20221343636489
:10415C004123E25400232232A354023AA3540120F7
:10416C0000E0002070BD0120FCE7F0B5C64600B5AC
:10417C0007000D0090461E003B689C692C40641B98
:10418C0063425C41444516D1731CF5D0FFF7A0FC8B
:10419C00069BC01AB04201D8002EEDD17B6C2022B8
:1041AC0013437B644123FA5400232232BB54023A5A
:1041BC00BB54012000E0002080BCB846F0BD70B5B7
:1041CC0005000C0016002B689B699B061AD4320064
:1041DC0021002800FFF760FF002815D1FFF778FCBD
:1041EC00801BA04201D8002CEDD16B6C2022134314
:1041FC006B644123EA5400232232AB54023AAB5491
:10420C00012070BD0020FCE70120FAE770B5040026
:10421C000D00160023689B695B0733D4320029001C
:10422C002000FFF739FF00282ED123689A699206E7
:10423C0011D4FFF74DFC801BA84201D8002DE9D109
:10424C00636C2022134363644123E254013B00223C
:10425C00E254012070BD9A69520702D5228D002AC2
:10426C00F8D12022DA6121684B68084803404B6082
:10427C0000236364412162542232A354023AA354B2
:10428C000120E7E70020E5E70120E3E700E800FE76
:10429C0010B5041E59D04123C35C002B43D04123DD
:1042AC002422E2542268136801218B431360226894
:1042BC00274B61680B4013612268936825490B40BA
:1042CC009360E368012B34D0226884231B02A1681D
:1042DC000B439360E368022B32D0226851681E4B6B
:1042EC000B4353602268D3681A490B40D36023698F
:1042FC0062691343A269120221681343CB602268DE
:10430C00E369216A0B4313602268136801210B4394
:10431C0013600023636441221F31A15423630132D3
:10432C00A354002010BD40330022C254FEF7BAFA49
:10433C00B5E7226880231B02A1680B439360C9E791
:10434C002368802212015A60C7E70120EAE7C046C1
:10435C00FFFFFFF0FF7FFFFF00800002F0B585B08C
:10436C0004000F00029203930A9D4123C35C202B8F
:10437C0000D09BE02033C35C012B00D199E040239B
:10438C000122C254FFF7A4FB0600802100901923E0
:10439C00012209022000FFF7E8FE002800D08AE085
:1043AC0041232122E2540133113AE2540023636485
:1043BC00029A6262039A62856363638D9BB2FF2BE0
:1043CC000BD9FF2323857F3B3F4A00925B04FF22DE
:1043DC0039002000FFF74AFE18E0628D92B2228568
:1043EC008023D2B2384900919B0439002000FFF79A
:1043FC003DFE0BE0628D92B222858023D2B2002169
:10440C0000919B0439002000FFF730FE638D9BB2B6
:10441C00002B34D0320029002000FFF77DFE00284D
:10442C004BD12368626A12789A62636A01336362C1
:10443C00638D013B9BB26385238D013B9BB223852E
:10444C00628D92B2002AE1D0002BDFD100962B00B6
:10445C00002280212000FFF788FE00282FD1638DD9
:10446C009BB2FF2BC6D9FF2323857F3B00220092F2
:10447C005B04FF3239002000FFF7F8FDC6E732007D
:10448C0029002000FFF79BFE00281AD12368202268
:10449C00DA6121684B680D4D2B404B604123E2548F
:1044AC0000232232A354023AA35400E0022005B0A8
:1044BC00F0BD0220FBE70120F9E70120F7E701201E
:1044CC00F5E70120F3E7C0460020008000E800FE7D
:1044DC00F0B585B004000F00029203930A9D4123AE
:1044EC00C35C202B00D09BE02033C35C012B00D19C
:1044FC0099E040230122C254FFF7EAFA060080211A
:10450C0000901923012209022000FFF72EFE00283B
:10451C0000D08AE041232222E2540133123AE254C1
:10452C0000236364029A6262039A62856363638DFB
:10453C009BB2FF2B0BD9FF2323857F3B3F4A009275
:10454C005B04FF2239002000FFF790FD18E0628D1C
:10455C0092B222858023D2B2384900919B04390053
:10456C002000FFF783FD0BE0628D92B22285802341
:10457C00D2B2002100919B0439002000FFF776FD98
:10458C00638D9BB2002B34D0320029002000FFF742
:10459C003DFE00284BD123685B6A626A1370636A24
:1045AC0001336362238D013B9BB22385628D013AFB
:1045BC0092B26285628D92B2002AE1D0002BDFD1DB
:1045CC0000962B00002280212000FFF7CEFD002852
:1045DC002FD1638D9BB2FF2BC6D9FF2323857F3B45
:1045EC00002200925B04FF3239002000FFF73EFDF1
:1045FC00C6E7320029002000FFF7E1FD00281AD1A0
:10460C0023682022DA6121684B680D4D2B404B60EA
:10461C004123E25400232232A354023AA35400E073
:10462C00022005B0F0BD0220FBE70120F9E70120D4
:10463C00F7E70120F5E70120F3E7C04600240080EE
:10464C0000E800FEF0B5CE46474680B585B00600C2
:10465C00894690461D00002303934133C35C202BF5
:10466C0000D0A6E003689B691B0400D5A3E040239F
:10467C00C35C012B00D1A0E040230122C2540133C2
:10468C002332C25400234364F368012B18D04B46E9
:10469C009A05920DA0239B01134332685360FFF7D8
:1046AC0017FA070033689A6920241440621E94415B
:1046BC00E2B29C69102323405C1EA341DCB212E0E1
:1046CC004B469A05920D414B1343E6E733689A69C2
:1046DC0020241440621E9441E2B29B6910241C40B9
:1046EC00631E9C41E4B2144317D16B1CEED0FFF750
:1046FC00EFF9C01BA84201D8002DE7D1202241239D
:10470C00F254736C1343736440230022F25401205F
:10471C0005B0C0BCB946B046F0BD33689B69DB063A
:10472C0022D500972B00002220213000FFF71DFD21
:10473C00002846D133681022DA6133681032DA610E
:10474C00039B434522D0039B01330393039B4345B7
:10475C009AD320224123F254736C13437364402385
:10476C000022F2540120D3E700972B0000222021D5
:10477C003000FFF7FAFC002821D132682023D361E6
:10478C004122B35420330022F254C1E732685168FD
:10479C008023DB010B43536000972B000022202168
:1047AC003000FFF7E2FC00280DD133682022DA61DB
:1047BC00C9E70220ACE70220AAE70220A8E7012003
:1047CC00A6E70120A4E70120A2E7C04600200002D2
:1047DC00F0B54123C35C202B20D12033C35C012BCB
:1047EC001ED040240122025541252423435506683E
:1047FC00336893433360066833680A4F3B40336039
:10480C00066833681943316001680B6813430B6009
:10481C0020234355002303550020F0BD0220FCE764
:10482C000220FAE7FFEFFFFFF0B54123C35C202B1A
:10483C001ED12033C35C012B1CD040240122025515
:10484C004125242343550668336893433360066837
:10485C003368094F3B4009021943316001680B680A
:10486C0013430B6020234355002303550020F0BD58
:10487C000220FCE70220FAE7FFF0FFFF0268136852
:10488C000B490B401360026893680A490B40936014
:10489C00C36E012B06D088232022C2500023C3668E
:1048AC00036770470268136810218B431360F2E7AB
:1048BC00DFFEFFFFFEFFFFEF8423C358212B00D048
:1048CC0070473533C35A9BB2002B0AD10268136868
:1048DC0080218B4313600268136840390B431360CB
:1048EC00EEE7036D1A7803689A62036D0133036572
:1048FC005622835A013B9BB28352E1E78423C3586F
:10490C00212B00D070473533C35A9BB2002B0AD1F0
:10491C000268136880218B43136002681368403966
:10492C000B431360EEE7036D1B880268DB05DB0DA0
:10493C009362036D023303655622835A013B9BB28B
:10494C008352DFE78423C358212B00D070474933AF
:10495C00C35A0CE00268936810490B4093600268DC
:10496C00136840210B431360F0E7013B9BB2002B13
:10497C00ECD05622825A92B2002AEBD00268D1694E
:10498C000906F2D5016D09789162026D013202655A
:10499C005621425A013A92B24252E6E7FFFF7FFF9C
:1049AC008423C358212B00D070474933C35A0CE0E1
:1049BC000268936811490B409360026813684021A8
:1049CC000B431360F0E7013B9BB2002BECD056225B
:1049DC00825A92B2002AEBD00168CA691206F2D54B
:1049EC00026D1288D205D20D8A62026D0232026506
:1049FC005621425A013A92B24252E4E7FFFF7FFF3E
:104A0C0030B58423C358202B51D1002951D0002A12
:104A1C0051D0836880246401A34225D08024045D96
:104A2C00012C4AD0802401250555016554214252A0
:104A3C00023142528C2200218150083A213181509E
:104A4C0080229205416E914215D0802252019342F0
:104A5C0027D01B4B43678021002343540268136803
:104A6C000B431360002023E00469002CD6D1CC0743
:104A7C00D4D501201CE08022520193420BD0114B63
:104A8C00436780230022C2540268916880231B0470
:104A9C000B439360E6E70369002BF0D10A4B4367A5
:104AAC00EFE70369002BD4D1084B4367D3E702200F
:104ABC0030BD0120FCE70120FAE70220F8E7C046F0
:104ACC00C548000851490008AD49000809490008CB
:104ADC0010B50268136840218B4313608423202295
:104AEC00C2500023436707F009FE10BD704710B594
:104AFC00806A00235E228352083A8352FFF7F6FF46
:104B0C0010BD7047F8B504000268D3691068956849
:104B1C009E491E000E400B4205D1990603D5810615
:104B2C002CD4E9002AD4002E07D099492E000E402F
:104B3C000D4229D19749084226D1E16E012900D1B5
:104B4C009FE0D90202D5690200D505E11A0605D508
:104B5C00020600D507E12A0200D504E15A0602D567
:104B6C00420600D506E11A0202D5420000D505E145
:104B7C00DB0102D5002800DA04E1F8BD236F002B1D
:104B8C00FBD020009847F8E7D90707D5C10505D514
:104B9C00012717628C2162583A4362509A0709D553
:104BAC00EA0707D52268022111628A31625804276C
:104BBC003A4362505A0709D5EA0707D522680421FF
:104BCC0011628831625802273A4362501A070AD59B
:104BDC00820601D4002E06D02268082616628C218B
:104BEC006258324362501A050AD5420108D5226830
:104BFC008021090111628C216258202632436250B7
:104C0C008C22A258002AB8D09B0608D5830601D462
:104C1C00EB0004D5236F002B01D0200098478C2388
:104C2C00E25823689B685B0602D42823134221D0E8
:104C3C002000FFF723FE23689A68520616D59A685F
:104C4C0040218A439A60E36F002B0BD0524A9A633F
:104C5C00E06FFEF72FFE002800D18EE7E06F836B2C
:104C6C0098478AE72000FFF741FF86E72000FFF70F
:104C7C003DFF82E72000FFF739FF8C230022E25032
:104C8C007BE7D90600D45CE7C10600D459E71023B2
:104C9C001362226893685B0638D5E16F0B685B681A
:104CAC009BB2002B00D168E75C20205A984200D8B8
:104CBC0063E75E2023520B681B689B0609D55C23B7
:104CCC00E15A0233E35AC91A89B22000FFF719FFDF
:104CDC0053E7136831490B40136022689368033122
:104CEC00FF318B439360226893683F318B43936011
:104CFC0088232022E2500023E366226813683039AF
:104D0C008B431360E06FFEF795FDD8E75C23E15A07
:104D1C000233E05A091A89B2E35A9BB2002B00D134
:104D2C002BE7002900D128E713681D4803401360C6
:104D3C00226893681B480340936088232022E2502A
:104D4C000023E366236722681368102083431360F3
:104D5C002000FFF7D6FE10E780235B0313622000D0
:104D6C0000F0A2FD09E7636F002B00D105E72000DE
:104D7C00984702E72000FFF7ABFEFEE6200000F0AC
:104D8C0095FDFAE6200000F090FDF6E60F08000015
:104D9C000100001020010004FB4A0008FFFEFFFF89
:104DAC00DFFEFFFFFEFFFFEF10B504006023C35AC8
:104DBC0088228258222A05D00268936908210B4365
:104DCC00936110BD0268526ADBB21340826D13709E
:104DDC00836D013383655E22835A013B9BB2835200
:104DEC00835A9BB2002BECD1026813680F490B401D
:104DFC001360026893682331FF318B4393608823DF
:104E0C002022C25000230367C36E012B04D007F08D
:104E1C00D1FB0023E366D4E7026813680F318B43A0
:104E2C0013605C23C15AFFF76CFEF2E7DFFEFFFF55
:104E3C0010B504006023C25A2833C358222B05D066
:104E4C000268936908210B43936110BD03685B6A88
:104E5C001340826D1380836D023383655E22835A07
:104E6C00013B9BB28352835A9BB2002BEDD102685B
:104E7C00136810490B401360026893682331FF31AB
:104E8C008B43936088232022C25000230367C36E98
:104E9C00012B04D007F08EFB0023E366D5E70268F4
:104EAC0013680F318B4313605C23C15AFFF729FE43
:104EBC00F2E7C046DFFEFFFFF0B5C64600B582B094
:104ECC0004006023C35A01930368DD691A68904695
:104EDC009F6888228258222A07D09A6908210A439F
:104EEC009A6102B080BCB846F0BD6823C65A1FE078
:104EFC008C23E358002B56D15E23E35A9BB2002B34
:104F0C0016D1226813683D490B40136022689368E0
:104F1C003B490B40936088232022E25000232367F7
:104F2C00E36E012B46D0200007F044FB0023E36620
:104F3C00002E4AD0AB0648D523685B6A6A461279C4
:104F4C001340A26D1370A36D0133A3655E22A35AA7
:104F5C00013B9BB2A3522368DD696A07CCD0EA07F8
:104F6C0008D54246D20505D5012119628C22A358D9
:104F7C000B43A350AB0709D5FB0707D523680222C7
:104F8C001A628A32A35804210B43A3506B07AFD586
:104F9C00FB07ADD5236804221A628832A35802217C
:104FAC000B43A350A4E72000FFF7A0FD8C230022A5
:104FBC00E250A1E72268136810218B4313605C2335
:104FCC00E15A2000FFF79DFDB0E75E23E35A9BB248
:104FDC00002B00D185E76822A25A9A4200D880E7BC
:104FEC002268936807490B409360074B236722683C
:104FFC00136820210B43136073E7C046FFFEFFFFCD
:10500C00FEFFFFEFFFFFFFEFB54D0008F8B5CE46F2
:10501C00474680B504006023C55A0368DF691A68E7
:10502C0090469A68914688228258222A07D09A691B
:10503C0008210A439A61C0BCB946B046F8BD682342
:10504C00C65A1FE08C23E358002B56D15E23E35A3B
:10505C009BB2002B16D1226813683D490B4013609C
:10506C00226893683B490B40936088232022E250CE
:10507C0000232367E36E012B46D0200007F09AFA39
:10508C000023E366002E4AD0BB0648D523685B6A32
:10509C002B40A26D1380A36D0233A3655E22A35A2D
:1050AC00013B9BB2A3522368DF697A07CED0FA0783
:1050BC0008D54246D20505D5012119628C22A35888
:1050CC000B43A350BB070AD54B46DB0707D5236818
:1050DC0002221A628A32A35804210B43A3507B0785
:1050EC00B0D54B46DB07ADD5236804221A62883253
:1050FC00A35802210B43A350A4E72000FFF7F6FCB2
:10510C008C230022E250A1E72268136810218B4304
:10511C0013605C23E15A2000FFF7F3FCB0E75E2339
:10512C00E35A9BB2002B00D185E76822A25A9A421F
:10513C0000D880E72268936807490B409360074BBF
:10514C0023672268136820210B43136073E7C04662
:10515C00FFFEFFFFFEFFFFEFFFFFFFEF3D4E0008DE
:10516C00F8B504000168836802691343426913436C
:10517C00C2691343426E1A430B68AB480340134396
:10518C000B6022685368A9490B40E1680B435360DC
:10519C00A1692268A64B9A4201D0236A19439368ED
:1051AC00A44803400B4393602268D36A0F218B43BE
:1051BC00616A0B43D36222689F4B9A420ED09F4B7D
:1051CC009A4248D09E4B9A4200D17BE09D4B9A422A
:1051DC007AD0974B9A424FD010230BE09A4B596DD3
:1051EC0003230B40022B5FD031D8002B5ED0012B58
:1051FC005ED103338E498A4270D0E069802212025C
:10520C00904200D1B4E0042B00D100E100D9E8E0D9
:10521C00002B00D1F4E0022B00D0E0E08B48636A55
:10522C005B008B4A995AFAF78DFF63685B08C018CC
:10523C006168FAF787FF0004000C0200103A854BF6
:10524C009A4200D9EEE02368D8600020CFE0032B0F
:10525C0030D10533CEE77C4B596D0C230B40082B1A
:10526C002AD005D8002B29D0042BC3D01023C1E79A
:10527C000C2B25D1043BBDE7734B5B6DC0210901A1
:10528C000B40802109018B4220D007D8002B1FD066
:10529C008021C9008B421DD10423ABE7C021090139
:1052AC008B4219D10823A5E70223A3E70023A1E72A
:1052BC0010239FE710239DE702239BE7002399E728
:1052CC00102397E7002395E7002393E7022391E748
:1052DC0000238FE710238DE710238BE7042B43D09B
:1052EC0034D8002B39D0022B2ED1584D636A5B0079
:1052FC00574A9F5A39002800FAF724FF6668730052
:10530C009B19834200D985E03303834200D283E0AA
:10531C003A00002328000021FBF7C8F8050E0B0209
:10532C002B430202700800218018594132000023DF
:10533C00FBF7BCF8484BC218484B9A4200D96DE0B9
:10534C002368D860002052E0012050E0082B02D1E5
:10535C0080252D02CAE7012049E0FEF75FF8050021
:10536C00002DC3D1002042E0FDF730FF0500F7E728
:10537C00042B31D026D8002B28D0022B20D1334837
:10538C00636A5B00324A995AFAF7DCFE40006368A4
:10539C005B08C0186168FAF7D5FE83B20004000CF4
:1053AC00010010392B4A91423AD80F2293431A002C
:1053BC0040080723184010432368D860002016E0EB
:1053CC00012014E0082BDBD0012010E0FEF726F8BA
:1053DC000028D5D100200AE0FDF7F8FEF8E70120FF
:1053EC0005E0082B02D18020000218E701200123E0
:1053FC006A22A352023AA352002323676367F8BDC3
:10540C00FEF70CF8002800D009E70020EFE7FDF7C5
:10541C00DDFEF7E70120EAE70120E8E70120E6E7F7
:10542C000120E4E70120E2E7F369FFCFFFCFFFFFA4
:10543C0000800040FFF4FF110038014000440040A0
:10544C0000480040004C0040001002400024F400D2
:10545C00D4070108EFFF000000FDFFFFFFFC0F0069
:10546C00836ADB0706D5026853682C490B40C16A76
:10547C000B435360836A9B0706D50268536828491F
:10548C000B40016B0B435360836A5B0706D50268C4
:10549C00536824490B40416B0B435360836A1B07D1
:1054AC0006D50268536820490B40816B0B4353604F
:1054BC00836ADB0606D5026893681C490B40C16BF6
:1054CC000B439360836A9B0606D502689368184960
:1054DC000B40016C0B439360836A5B060BD502682F
:1054EC00536814490B40416C0B43536080235B039E
:1054FC00426C9A420AD0836A1B0606D5026853682E
:10550C000D490B40C16C0B435360704702685368E4
:10551C000A490B40816C0B435360ECE7FFFFFDFF26
:10552C00FFFFFEFFFFFFFBFFFF7FFFFFFFEFFFFF14
:10553C00FFDFFFFFFFFFEFFFFFFFF7FFFFFF9FFF07
:10554C00F8B5CE46474680B506000D0017009946C3
:10555C00089B98463368DC692C40641B63425C41B1
:10556C00BC4241D143460133F4D0FEF7B1FA4B466D
:10557C00C01A404523D84346002B20D033681A6804
:10558C005207E7D5DA691205E4D5802212011A62B6
:10559C003268136817490B40136032689368A33163
:1055AC00FF318B43936020238422B3500432B350D9
:1055BC000432B35060330022F254032015E03268F9
:1055CC0013680C490B40136032689368A331FF31A8
:1055DC008B43936020238422B3500432B350603346
:1055EC000022F254032000E00020C0BCB946B046B3
:1055FC00F8BDC0465FFEFFFF30B583B004008C23BE
:10560C000022C250FEF764FA050023681B681B07D2
:10561C000FD423681B685B0718D420238422A35063
:10562C000432A3500023E366083AA354002003B0CD
:10563C0030BD80210C4B0093030000228903200015
:10564C00FFF77EFF0028E4D00320F0E78021064B13
:10565C0000932B000022C9032000FFF771FF0028E4
:10566C00DBD00320E3E7C046FFFFFF0110B5041EAB
:10567C0030D08423C358002B22D084232422E25020
:10568C002268136801218B4313602000FFF768FD2B
:10569C00012814D0A36A002B18D1226853680E4934
:1056AC000B405360226893682A218B4393602268D5
:1056BC00136829390B4313602000FFF79DFF10BDC1
:1056CC0080330022C254FDF737F9D6E72000FFF7EC
:1056DC00C7FEE2E70120F2E7FFB7FFFF10B58165D7
:1056EC005C23C2520233C2520023036783688021B9
:1056FC0049018B4208D0002B15D10369002B0ED128
:10570C006033FF21C15215E00369002B03D16033D4
:10571C003149C1520EE06023FF21C1520AE06023DF
:10572C007F21C15206E0802149058B4223D06023A2
:10573C000021C1528C230021C150043B2231C150A5
:10574C0001688B68012423438B6080239B05416E89
:10575C0099421BD080235B0182689A4236D01F4B42
:10576C00036780230022C25402681168A0330B43E4
:10577C001360002010BD0369002B03D160337F211F
:10578C00C152D7E760233F21C152D3E76823C35AE4
:10579C009342DFD880235B0182689A4210D0104B71
:1057AC00036780230022C2540268116880330B43C4
:1057BC0013600268916880235B050B439360D8E704
:1057CC000369002BEBD1074B0367EAE70369002B56
:1057DC00C5D1054B0367C4E7FF010000B54D0008B8
:1057EC00C54E0008195000083D4E000810B588231E
:1057FC00C358202B1BD100291BD0002A1BD080237F
:10580C005B0184689C420BD08023C35C012B14D0B9
:10581C0080230124C4540023C366FFF75FFF07E015
:10582C000369002BF0D1CB07EED5012000E002205C
:10583C0010BD0120FCE70120FAE70220F8E7000088
:10584C0070B584B0040002AA154B03CB03C26A46A0
:10585C00144B03CB03C2636E002B06D101336A22B7
:10586C00A352023AA35204B070BD226895686D0E23
:10587C0007231D409268520F134002AEF05CC0002B
:10588C006A46D15CFAF7E8FC6A23E052705DC0000E
:10589C006B46595DFAF7E0FC6823E052E3E7C0463B
:1058AC00A0060108EC07010870477047704700001C
:1058BC0070B58023C35C012B15D0802401260655BE
:1058CC00842524234351026813681168B143116085
:1058DC00064A13400022426601680B6020234351A4
:1058EC000255002070BD0220FCE7C046FFFFFFDF21
:1058FC00F8B504000B008022825C012A1BD08025A5
:10590C000120605584262422A25122681768116850
:10591C008143116022689168C900C90819439160DC
:10592C002000FFF78DFF23681F602023A351002365
:10593C0063550020F8BD0220FCE70000F8B5040018
:10594C000B008022825C012A1BD08025012060552F
:10595C0084262422A25122681768116881431160A1
:10596C002268916808480140194391602000FFF7B4
:10597C0067FF23681F602023A35100236355002079
:10598C00F8BD0220FCE7C046FFFFFFF10020704786
:10599C000020704770B586B004000D0002AE009672
:1059AC000B4A11000B3900236846FCF767FE694669
:1059BC00200002F077FB0098B04201D006F05CFFAB
:1059CC00044B08332360E561200006B070BDC0466F
:1059DC0003080108C008010870B582B005000E1E4E
:1059EC000DD0941B01940F2C0ED82868012C14D0C8
:1059FC00002C14D02200310007F0A1FE0FE09142E0
:105A0C00EFD00B4807F0F9FA002201A9280007F0A3
:105A1C00D1FB2860019BAB60E7E733780370019AF8
:105A2C006A602B689B1800221A7002B070BDC046C9
:105A3C003807010808B4F0B582B000AF04000D00BF
:105A4C0011001C23FB1804CBC81DC008C0006E46F7
:105A5C00301A85466E467B60A847321823000833FF
:105A6C002360002331002000FFF7B6FF2000BD4665
:105A7C0002B0F0BC08BC01B018470000F0B5CE462F
:105A8C00474680B5B3B006004B680A689B1A182BC2
:105A9C0017D105F031FE45680AAC0894854A11000F
:105AAC002039002308A8FCF7E9FD08A9280000F01C
:105ABC002DFC0898A04201D006F0DEFE0024002741
:105ACC0066E005F019FE456804AC02947A4A1100B0
